:020000040800F2
:1000000000800120A13E0008E92F0008EB2F000826
:10001000ED2F0008EF2F0008F12F0008000000006E
:10002000000000000000000000000000F32F0008A6
:10003000F52F000800000000F72F0008F92F000836
:10004000F13E0008F13E0008F13E0008F13E0008D4
:10005000F13E0008F13E0008F13E0008F13E0008C4
:10006000F13E0008F13E0008F13E0008F13E0008B4
:10007000F13E0008F13E0008F13E0008F13E0008A4
:10008000F13E0008F13E0008F13E000800000000CB
:10009000000000000000000000000000F13E000829
:1000A000F13E0008F13E0008F13E0008F13E000874
:1000B000F13E0008F13E0008F13E0008F13E000864
:1000C000F13E0008F13E0008F13E0008F13E000854
:1000D000F13E0008F13E0008F13E0008000000007B
:1000E000F13E0008F13E0008F13E0008000000006B
:1000F000000000000000000000000000F13E0008C9
:1001000000000000F13E0008F13E0008F13E00084A
:1001100000000000000000000000000000000000DF
:10012000F13E0008F13E0008F13E0008F13E0008F3
:10013000F13E000800000000000000000000000088
:10014000000000000000000000000000F13E000878
:10015000F13E0008F13E0008F13E0008F13E0008C3
:10016000F13E0008F13E0008000000000000000021
:10017000000000000000000000000000000000007F
:1001800000000000F13E0008000000000000000038
:04019000F13E000834
:1001A0000348044B834202D0034B03B11847704706
:1001B0007000002070000020000000000548064983
:1001C000091A891001EBD171491002D0034B03B118
:1001D00018477047700000207000002000000000E9
:1001E00010B5064C237843B9FFF7DAFF044B13B17F
:1001F0000448AFF300800123237010BD700000207D
:1002000000000000F43E000808B5044B1BB104498F
:100210000448AFF30080BDE80840CFE700000000CD
:1002200074000020F43E000870B50D4E0D4D761B95
:10023000B61006D00024013455F8043B9847A64276
:10024000F9D1094E094D761B03F054FEB61006D0C5
:100250000024013455F8043B9847A642F9D170BDFB
:10026000844300088443000888430008844300084E
:10027000F0B4860743D0541E002A3ED0CAB20346CB
:1002800002E014F1FF3438D303F8012B9D07F8D1B5
:10029000032C2BD9CDB245EA05250F2C45EA05459F
:1002A00016D9A4F110073F0903F1200606EB071643
:1002B00003F1100242E9045542E902551032B242FC
:1002C000F8D104F00F040137032C03EB07130DD909
:1002D0001E462246043A032A46F8045BFAD8221F37
:1002E00022F003020432134404F003042CB1C9B217
:1002F0001C4403F8011B9C42FBD1F0BC7047144620
:100300000346C5E70CB470B59CB020AC0B4E54F856
:10031000042B0291234606916FF0004502A9019437
:100320000795CDE9045600F007F9029B00221A70E8
:100330001CB0BDE8704002B0704700BF0802FFFF6C
:100340000EB430B59CB01FAB0C4C0D4D53F8042BC4
:100350000193014602910691206802A96FF00044C2
:100360000794CDE9044500F0E7F8029B00221A70DB
:100370001CB0BDE8304003B0704700BF0000002053
:100380000802FFFF2DE9F0478E681D46AE420C467D
:100390000B68174627D88046888910F4906F31D0B3
:1003A000D1E9041606EB4606A3EB010906EBD67667
:1003B0006B1C76104B44B342324684BF1E46324615
:1003C000430521D51146404600F06CFD824678B3C6
:1003D0004A46216900F014FCA38923F4906343F09A
:1003E0008003A38115E02E4618462A46394600F0C0
:1003F000A1FCA2682368961B2B44A6602360002002
:10040000BDE8F0873546EFE7404600F0AFFD824695
:1004100050B1A6EB09020AEB09036661C4F810A00B
:100420002360A2602E46DFE72169404600F0E6FC2B
:100430000C23C8F80030A38943F04003A3814FF098
:10044000FF30DDE72DE9F04F936883B09046002B35
:100450006CD017688D6882460C460868083742E001
:10046000A38913F4906F2DD0D4E9041505EB45054D
:10047000A0EB010B05EBD575701C6D105844A8421C
:100480002A4684BF05462A465B0536D511465046A6
:1004900000F008FD00283AD05A462169019000F08A
:1004A000AFFBA289019B22F4906242F08002A281FC
:1004B000A5EB0B0203EB0B00656123612060A260DA
:1004C0003546B3465A46494600F034FCD8F8083061
:1004D000A2682068551B58449E1BA5602060C8F880
:1004E00008601EB3083757E90296AB46002EF9D0D4
:1004F000AE42B5D23546B346E4E7504600F036FD8D
:1005000003460028D4D12169504600F077FC0C2323
:10051000CAF80030A389002243F040034FF0FF30B7
:10052000A381C8E9012203B0BDE8F08F0020C8F81C
:10053000040003B0BDE8F08F2DE9F04F14468A891E
:100540009FB015068946029003D50A69002A00F07B
:100550001281059330238DF832302378904E00219C
:1005600020220B918DF831200127002B00F0928082
:10057000252B254603D118E0252B00F0BD8015F86A
:10058000013F002BF8D1B5EB040B00F0838022462D
:100590005B4649460298FFF7F5FE01307AD00B9B87
:1005A0002A785B440B93002A74D000234FF0FF326B
:1005B00001350693CDE908338DF85B301C93079223
:1005C00005E0069A07FA03F3134355460693AA4635
:1005D00005221AF8011B304600F0C2FAD346831BED
:1005E0000028EED1069BD90644BF20228DF85B205F
:1005F00029781A0744BF2B228DF85B202A2953D073
:10060000A1F13003092B00F2AB80099A02E05546B4
:100610000AF1010A9AF8001002EB820203EB42028F
:10062000A1F13003092BD346F1D905F1020A099251
:100630002E2945D05B4C0322204600F091FA002879
:1006400057D0001B069A402404FA00F00243069299
:100650000AF101049AF8001053488DF83010062270
:1006600000F07EFA002859D0504B002B49D005AB42
:1006700000934A464E4B029806A9AFF3008080468D
:10068000B8F1FF3F06D00B9B43440B932378002B1C
:100690007FF46EAFB9F80C305B0654BF0B984FF087
:1006A000FF301FB0BDE8F08F059A116804320029B1
:1006B00005922DDB099169782E2905F1020AB9D13D
:1006C0009BF801102A2933D1059B9BF802101A6868
:1006D00007920433002A05930BF102000BF1030A81
:1006E00040DB304C83460322204600F039FA0028D4
:1006F000A7D15446DA46ADE7B5EB040B3FF455AF4E
:1007000045E7059B073323F0070308330593BAE752
:10071000494243F0020309910693CCE705AB0093ED
:100720004A46234B029806A900F0D2F88046A7E774
:10073000A1F1300000220928079201D917E0DA461A
:100740009AF8011002EB820200EB4202A1F13000A4
:1007500009280AF1010BF2D90AF1020A079269E7A6
:10076000AB4665E74FF0FF328346079262E7D34618
:100770000AF1010A5EE74021039300F093FB039B1B
:10078000C9F80000C9F8100018B14022C9F81420B7
:10079000DFE6029A0C2313604FF0FF3081E700BFC1
:1007A0003C430008444300084843000800000000A0
:1007B000850300082DE9F0470C4691460A698968CF
:1007C000DDF820808A42B8BF0A46C9F8002094F8B4
:1007D000431006461F4611B10132C9F800202368B4
:1007E00099065FD5D9F800200232C9F800202368A5
:1007F00013F0060F19461DD1E1688A1A002AD8BFE6
:10080000194617DD04F1190A002505E0E368D9F857
:1008100000209B1AAB420CDD01235246394630467C
:10082000C047013005F10105F0D14FF0FF30BDE8C0
:10083000F087216894F84330003318BF01238A06FB
:100840000AD5E1185A1C302081F84300224494F85C
:10085000451082F84310023304F143023946304612
:10086000C0470130E1D02368D9F80050216903F076
:100870000603042BD4E902201AD08A421FDD4FF070
:100880000009521A91441A34002501E04D4516D052
:100890000123224639463046C047013005F10105A3
:1008A000F4D1C2E713F0060F0CD1D9F80020A3E76A
:1008B000401B8A4220EAE079E3DC0028E3DC0020E8
:1008C000BDE8F08794F84330003318BF0123C3E735
:1008D0002DE9F0430C46097E85B06E2906460C9D35
:1008E0001746984604F1430C4AD00FD8632900F00C
:1008F000FF8000F2BF8000294ED0582940F0E180EF
:1009000084F845102268DFF844E212E0732900F011
:10091000C6807AD86F2900F0DB80702940F0D18042
:10092000206840F0200222607823DFF824E284F877
:1009300045302B68191D1B682960150602D4500626
:1009400048BF9BB2D10744BF42F020022260002B77
:100950006DD1D4E9001284F84330002A21F020033D
:100960002360A2607EDB21F0240121601021002A97
:1009700079D1654608294ED0ACEB050323610EE022
:100980002B6822686169181D286015061B6802D44F
:10099000500600F1C7801960002365462361CDF839
:1009A00000803B4603AA21463046FFF703FF013093
:1009B00020D02A46236939463046C047013019D035
:1009C00022680398E368920719D51A1A002A16DDDF
:1009D00004F11909002504E0E36803981A1AAA42F1
:1009E0000DDD01234A4639463046C047013005F146
:1009F0000105F1D14FF0FF3005B0BDE8F08398421A
:100A0000B8BF184605B0BDE8F083752960D07829D5
:100A100057D1226888E72368DB07ADD56268236970
:100A20009A42A9DC302305F8013C013DA4E71021DE
:100A3000002284F843206268A260002A2CDB206830
:100A400020F004002060002B91D06546B3FBF1F24A
:100A500001FB123013461EF8002005F8012D002B73
:100A6000F4D187E710219EF8003084F8423004F179
:100A700042057FE7642901D0692922D120682B68CB
:100A8000010603F1040245D51B682A60002B4BDBED
:100A9000DFF8B8E00A21CEE7002BD6D1E3E72B68D8
:100AA0006268191D29601D680021284600F058F869
:100AB000002848D0401B60602061002384F8433048
:100AC0006DE7012384F84210236104F14205F4E745
:100AD00020682B6810F0800F03F1040213D01B680C
:100AE0002A606F290CBF08210A21DFF860E09FE728
:100AF0002B681A68191D0123296084F8422023619C
:100B000004F14205D9E7400653BF1B682A601B88E1
:100B10002A60E6E7410653BF1B682A60B3F900303C
:100B20002A60B3E7198037E76268A2602D21002AA6
:100B300084F84310C3F10003DFF810E04FF00A011E
:100B4000BFF67EAF81E76068B6E700BF504300089C
:100B500064430008000000000000000000000000E6
:100B600001F0FF01102A2BDB10F0070F08D010F85E
:100B7000013B013A8B422DD010F0070F42B3F6D162
:100B8000F0B441EA012141EA014122F007047FF07B
:100B900000070023F0E80256083C85EA010586EAD2
:100BA000010685FA47F5A3FA87F586FA47F6A5FA0E
:100BB00087F68EB9EED1F0BC01F0FF0102F007021A
:100BC00032B110F8013B013A83EA010313B1F8D1C5
:100BD0000020704701387047002D06BF35460338A6
:100BE000073815F0010F07D1013015F4807F02BFDF
:100BF000013015F4C03F0130F0BC0138704700BF30
:100C0000844641EA000313F003036DD1403A41D317
:100C100051F8043B40F8043B51F8043B40F8043BD6
:100C200051F8043B40F8043B51F8043B40F8043BC6
:100C300051F8043B40F8043B51F8043B40F8043BB6
:100C400051F8043B40F8043B51F8043B40F8043BA6
:100C500051F8043B40F8043B51F8043B40F8043B96
:100C600051F8043B40F8043B51F8043B40F8043B86
:100C700051F8043B40F8043B51F8043B40F8043B76
:100C800051F8043B40F8043B51F8043B40F8043B66
:100C9000403ABDD2303211D351F8043B40F8043B06
:100CA00051F8043B40F8043B51F8043B40F8043B46
:100CB00051F8043B40F8043B103AEDD20C3205D316
:100CC00051F8043B40F8043B043AF9D2043208D00E
:100CD000D2071CBF11F8013B00F8013B01D30B8880
:100CE00003806046704700BF082A13D38B078DD05E
:100CF00010F003038AD0C3F10403D21ADB071CBF30
:100D000011F8013B00F8013B80D331F8023B20F899
:100D1000023B7BE7043AD9D3013A11F8013B00F8D2
:100D2000013BF9D20B7803704B7843708B7883705A
:100D3000604670478842F0B40DD98B1883420AD9B7
:100D4000841832B1224613F8014D02F8014D994240
:100D5000F9D1F0BC70470F2A49D940EA01039B073B
:100D600047D1A2F110031B0901F1200707EB03177C
:100D700001F1100400F1100554F8106C45F8106CE6
:100D800054F80C6C45F80C6C54F8086C45F8086C79
:100D900054F8046C45F8046C1034BC4205F110059D
:100DA000EAD1013302F00F051B01032D194403445E
:100DB00021D91F1F0E462C46043C56F804CB47F899
:100DC00004CF032CF8D82C1F24F00304043423444C
:100DD000214402F00302002ABBD0013B0A4411F86F
:100DE000014B03F8014F9142F9D1F0BC7047034623
:100DF000F1E70346F1E72A46EDE700BF79B338B5DE
:100E000051F8043C0C1F002BB8BFE418054600F055
:100E1000E5F8234B1A682AB1A2420DD9216860185F
:100E2000824230D0626028461C60BDE8384000F045
:100E3000D7B8A34203D81A465368002BF9D11168DA
:100E40005018A04213D00BD821686018834220D0DC
:100E5000636054602846BDE8384000F0C1B8704770
:100E60000C232B602846BDE8384000F0B9B8206854
:100E70000144501883421160ECD1D3E900030144CE
:100E800053601160E6E7D2E900020144626021602C
:100E9000C9E7D3E900030144636021605460D9E7E6
:100EA0008C000020F8B5CD1C25F0030508350C2D6D
:100EB00038BF0C25002D06463ADBA94238D82A4F08
:100EC00000F08CF83A6852B113685B1B04D433E02D
:100ED00023685B1B25D522465468002CF8D179681D
:100EE00000293BD02946304600F066F8431C2AD042
:100EF000C41C24F00304A04205D0211A304600F09F
:100F00005BF801301FD02560304600F069F804F12D
:100F10000B0020F00700231DC31A01D05A42E250F3
:100F2000F8BD0B2B0BD8A24215D063685360EBE7DA
:100F30000C2333600020F8BD0B2B0BD91446236023
:100F40001C442560E0E70C233046336000F048F88D
:100F50000020F8BD54683C601446D5E7304600F0E8
:100F60002BF87860BEE700BF8C000020E1B1F8B537
:100F70001446E2B106460D4600F034F8A04202D312
:100F80002F463846F8BD21463046FFF78BFF07460F
:100F90000028F6D022462946FFF732FE3046294681
:100FA000FFF72CFF3846F8BD1146FFF77BBFFFF770
:100FB00025FF2746E5E700BF38B5074C0023054667
:100FC0000846236001F0BAF8431C00D038BD2368FE
:100FD000002BFBD02B6038BDDC000020704700BF29
:100FE000704700BF51F8043C181F002BBCBF0B58C2
:100FF000C018704700B510EE103A204A23F00043A5
:10100000934283B019DDB3F1FF4F04DB30EE400AA9
:1010100003B05DF804FB684600F08CFA00F00300B2
:10102000012811D002281FD0B8B10120DDED010A3E
:101030009DED000A00F074FFEAE7DFED110A00F011
:10104000C5FB03B05DF804FBDDED010A9DED000A70
:1010500000F066FFB1EE400ADAE7DDED010A9DED32
:10106000000A00F0B3FBD3E7DDED010A9DED000AB5
:1010700000F0ACFBB1EE400ACAE700BFD80F493F11
:101080000000000000B510EE103A214A23F00043A2
:10109000934283B01ADDB3F1FF4F04DB30EE400A18
:1010A00003B05DF804FB684600F044FA00F003006A
:1010B000012813D0022820D0B8B1DDED010A9DED42
:1010C000000A00F083FBB1EE400AE9E70020DFED03
:1010D000110A00F025FF03B05DF804FBDDED010A05
:1010E0009DED000A00F072FBDAE70120DDED010A58
:1010F0009DED000A00F014FFD2E70120DDED010AAA
:101100009DED000A00F00CFFB1EE400AC8E700BFF9
:10111000D80F493F00000000F0B52DED048BB0EE74
:10112000408AF0EE608A384C8BB000F075F894F984
:101130000030B0EE409AF0EE609A013334D0B0EE59
:10114000480AF0EE680A00F033FF68B32AA3D3E937
:10115000002351EC180B01F04BFC054660BB28A3A3
:10116000D3E9002351EC180B01F024FCE0B194F911
:101170000030264A0895002600270421022B8DED19
:10118000048B8DED028BCDE90667CDE900122CD0E2
:10119000684600F015FF40B3089B1BB101F02AFE22
:1011A000089B03609DED069BB0EE490AF0EE690ACC
:1011B0000BB0BDEC048BF0BD144A94F900300192E1
:1011C000032100228DED048B8DED028B009108929E
:1011D0002BB90F4B4FF06042CDE90623D8E70D49FC
:1011E0000020022BCDE90601D2D101F003FE22231B
:1011F0000360D1E7AFF30080EF39FAFE422E86405C
:1012000051302DD5104987C0640000207843000874
:10121000FFFFEF470000F07F2DE9F04755EC104B42
:10122000BD4925F000428A4284B04FEAD57612D9F2
:10123000BA498A4240F28E80C5F31303234310EE6D
:10124000102A40F0FE80002E00F081809FED9A0B66
:1012500004B0BDE8F087B24B9A4200F2BB80B14BBC
:101260009A4240F2D7804FF0000A22462B46204691
:10127000294601F02DF992A3D3E9002306460F4633
:1012800001F026F990A3D3E9002300F069FF32466C
:101290003B4601F01DF98EA3D3E9002300F062FF65
:1012A00032463B4601F014F98BA3D3E9002300F04A
:1012B00057FF32463B4601F00BF989A3D3E90023DF
:1012C00000F050FF32463B4601F002F902460B4661
:1012D0002046294600F044FF02460B4606460F46CC
:1012E0002046294601F0F4F880468946BAF1000FFD
:1012F00000F0BD8032463B4600204FF0804100F0B8
:101300002FFF02460B464046494601F00BFA0246C3
:101310000B46DDE9020100F023FFDDE9002300F0C8
:101320001FFF0B4602468049002000F019FF6FF4B2
:101330007F739A4580F2B7800AF57A7A01EB0A51F9
:1013400000224FF0B87301F0C3F841EC100B04B069
:10135000BDE8F08764A3D3E9002310EE100A294604
:1013600001F046FB002876D161A3D3E90023204693
:10137000294601F01FFB00287FF468AF6B495EA38C
:10138000D3E9002301EBC6062046294601F0A0F868
:10139000D6E9082300F0E6FE01F034FB824601F0B6
:1013A0002DF857A3D3E9002306460F4601F090F825
:1013B00002460B462046294600F0D2FE52A3D3E94E
:1013C0000023CDE900013046394601F081F8CDE92E
:1013D000020116E0564B9A42D0D8544F07EBC6078D
:1013E00010EE100A2946D7E9002300F0B9FE97ED68
:1013F000047BCDE900018DED027BC6F1010AAAEB69
:10140000060ADDE90223DDE9000100F0A9FE044639
:101410000D462AE73EA3D3E9002310EE100A294621
:1014200000F0A0FE0022404B01F0E2FA002841D07B
:101430002046294600223C4B00F094FE41EC100B64
:1014400085E72B462046294600F08CFE41EC100B28
:1014500004B0BDE8F0872EA3D3E900231046194657
:1014600001F036F841EC100B04B0BDE8F0873046CF
:10147000394600224FF0804300F072FE02460B46D0
:101480004046494601F04EF922462B4600F068FEE0
:1014900002460B460020244900F062FE41EC100B8E
:1014A00004B0BDE8F08701EB0A5141EC100B04B029
:1014B000BDE8F0878246D8E600000000000000008A
:1014C000D0A4BE726937663EF16BD2C541BDBB3E4A
:1014D0002CDE25AF6A56113F93BDBE166CC1663F28
:1014E0003E5555555555C53FEF39FAFE422E8640BB
:1014F00051302DD5104987C0FE822B654715F73F27
:101500000000E0FE422EE63F763C7935EF39EA3DB9
:101510009C7500883CE4377E412E8640FFFFEF7FBC
:10152000422ED63FFFFF2F3E0000F03F103F000845
:10153000B1A2F03F70B510EE103A964A23F0004485
:10154000944286B0054669DD934A944210EE106AD3
:101550001ADC002B24F00F04DFED907A904A64DD52
:10156000944270EE677A00F0CF809FED8E7A77EE2E
:10157000C76A012077EEE67AC5ED006A77EEC77A92
:10158000C5ED017A06B070BD874A944261DDB4F1C1
:10159000FF4F80F2B180E215863AA4EBC25307EE0A
:1015A000903ABDEEE77ADFED816AB8EEC77A77EE62
:1015B000C77A8DED037A67EEA67ABDEEE77AB8EECC
:1015C000C77A77EEC77A8DED047A67EEA67AF5EEE4
:1015D000407AF1EE10FACDED057A40F0C780B5EE15
:1015E000407AF1EE10FA0CBF0123022370490191F9
:1015F0000221009103A8294600F06AF9002E12DAB0
:1016000095ED007AD5ED017AB1EE477AF1EE677A81
:10161000404285ED007AC5ED017A04E0002285EDB7
:10162000000A4260002006B070BD944270EE277A36
:1016300000F089809FED5B7A77EE876A4FF0FF308C
:1016400077EEE67AC5ED006A77EE877AC5ED017A26
:10165000E9E700F0B7FCDFED576ADFED505A9FED88
:10166000517AF6EE007AE0EE267AFDEEE77A17EE92
:10167000900AF8EEE76A1F28B1EE666AA6EE250A20
:1016800066EE877A52DD30EE677A17EE103AE4158F
:10169000C3F3C753E31A082B52DDDFED477A9FED02
:1016A000477AF0EE405AE6EE275A30EE650AA6EE8B
:1016B000270AF0EE407AD6EE877A35EEE77A17EE13
:1016C000103AC3F3C753E41A192C51DC85ED007AA4
:1016D000B0EE650A30EE470A002E30EE670A85ED5F
:1016E000010AA0DAB1EE477AB1EE400A85ED007A40
:1016F00085ED010A404296E770EE407A0020C5ED84
:10170000017AC5ED007A8EE7DFED2B6A9FED2B7A2B
:1017100077EEE67A012077EEC76A77EEE67AC5EDD6
:10172000006A77EEC77AC5ED017A7CE7421E244B4A
:1017300053F8223024F0FF029A4230EE677AA4D0A8
:1017400085ED007AC6E7DFED1C6A9FED1C7A77EE27
:10175000A67A4FF0FF3077EE876A77EEE67AC5ED2E
:10176000006A77EE877AC5ED017A5CE703233DE7EF
:101770009FED147A9FED145AB0EE650AA6EE070AA3
:1017800075EEC07AE6EE077AD6EE857A30EE677AA5
:10179000D6E700BFD80F493FE3CB1640800FC93FC3
:1017A000D00FC93F43443537800F49430000804381
:1017B000C03F000884F9223F0044353708A3852E36
:1017C000403F000800A3852E32318D2410EE103AE0
:1017D00023F00043B3F1485F2CDAFDEEC07A17EE38
:1017E000903A002B5BD020EE007ADFED314A9FED7E
:1017F000315ADFED315A9FED316ADFED317ADFED9D
:10180000316AA7EE245AE7EE055AA7EE256AE7EEFD
:10181000067AE7EE276A66EE876A60EEC00AB6EEE1
:10182000006AE7EE260AF7EE007AD7EE060A37EEF0
:10183000E00A704720EE007ADFED1D4A9FED1D5A49
:10184000DFED1D5A9FED1D6ADFED1D7ADFED1D6A8C
:101850001D4AA7EE245A9342E5EE075AA5EE876A81
:10186000E6EE077AE7EE876A66EE876AD5DD174A05
:10187000934217DC03F17F4307EE903AB7EE006A1C
:1018800036EE676A60EEC00AF6EE005AE7EE260A08
:10189000D7EE257A77EEE07A36EE670A7047B7EE34
:1018A000000A7047B6EE076AF5EE027AEAE700BF73
:1018B0004ED747ADF6740F317CF293B4010DD0379B
:1018C000610BB6BAABAA2A3D9999993E0000483FF0
:1018D0002DE9F04F2DED048BD7B003F1FF390293C2
:1018E000D31E48BF131DB24C649D0591DB1023EA43
:1018F000E37354F82560039303F10108A2EBC808D1
:1019000016EB09028646A3EB090316D41A449FED91
:10191000A97A6598511C1AAA002BA4BF50F823403D
:1019200007EE904A03F10103ACBFF8EEE77AF0EE60
:10193000477A8B42E2EC017AEED1029B002E4FEA0D
:1019400083044FEA860A1DDB1AAB181943AA7346B3
:10195000191902EB0A0742ADF446B9F1000FDFEDA9
:10196000957A09DB02466346F3EC016A32ED017AAF
:101970008B42E6EE877AF7D1E5EC017ABD4200F1C1
:101980000400EAD1AAF1080306ADEB1804939FED19
:101990008B9ADFED898A009605ABB34674449A446E
:1019A00042AF76464FEA8B0156AB0B44BBF1000FBA
:1019B00013ED140A16DD07EB8B032A4660EE097A55
:1019C000B0EE407AFDEEE77A73ED016AF8EEE77A61
:1019D000BB42A7EEE87A37EEA60ABDEEC77AA2ECC4
:1019E000017AEBD14046019100F03AFBB0EE408A1B
:1019F000B4EE000A28EE000A00F0ECFAF2EE007AEB
:101A0000A0EE678AB8F1000F0199FDEEC89AF8EED2
:101A1000E97A38EE678A40F3C4800BF1FF3CC8F1E5
:101A2000080355F82C2042FA03F000FA03F3D31A06
:101A300045F82C3019EE90CA8444C8F1070209EE2B
:101A400090CA43FA02F2002A31DD19EE903ABBF156
:101A5000000F03F1010309EE903A40F32982286850
:101A6000002840F08680BBF1010F0BD0AE464FF04E
:101A7000010C5EF8040F0CF1010300287CD19B459A
:101A80009C46F6D1B8F1000F0EDDB8F1010F00F061
:101A90003281B8F1020F07D10BF1FF3155F8213037
:101AA00003F03F0345F82130022A00F01281B5EE21
:101AB000408AF1EE10FA40F09580009B0BF1FF3C5C
:101AC00063450EDC0BF18041013905EB81010020FB
:101AD00051F80439514540EA0300F9D1002840F09B
:101AE0001381009B013B55F82330002B40F000810F
:101AF000049B4FF0010C53F804290CF1010C002A4F
:101B0000F9D0DC440BF1010EE64530DC039B029A70
:101B10000EEB03015A4403EB0C0B1AAB01F18041AD
:101B200003EB8202659B013903EB810107EB8E0E0B
:101B300003EB8B0B51F8043F9FED1E7A07EE903AB2
:101B4000F8EEE77A1046B9F1000FE0EC017A09DB14
:101B5000334601E072ED017AF3EC016AA342A6EE8E
:101B6000A77AF7D15945AEEC017A0246E2D1E346B5
:101B700018E701234FF0000CC0F580709B4545F835
:101B80002C000CDD55F82300294405EB830300E00D
:101B90001868C0F1FF0043F8040B8B42F8D1012014
:101BA00070E70FD10BF1FF3355F8232012124AE7EB
:101BB000D842000800000000000080430000803B85
:101BC0000000C93FF6EE007AB4EEE78AF1EE10FAB3
:101BD00080F25881B5EE408AF1EE10FA4FF0000223
:101BE0003FF46BAFB0EE480AC8F100009146009E8A
:101BF00000F036FA1FED107AB4EEC70AF1EE10FAD3
:101C0000C0F258815FED137A60EE277A0BF1010381
:101C1000FDEEE77A08F10808F8EEE77AA7EEC70AC2
:101C2000FDEEE77ABDEEC00A10EE102A45F82B2033
:101C300017EE902A45F823204046B7EE000A00939D
:101C400000F00EFA009B002BC0F24B81980042AAD4
:101C500000F1040C1FED277A1044011D05EB0C0266
:101C600072ED017AF8EEE77AAA4267EE807A20EE0A
:101C7000070A61ED017AF3D10DF1B80E1FED306A5C
:101C80000546774603F101080024002EC0F20581C5
:101C9000A148DFEDA27A2946B0EE467A002203E0A1
:101CA000A24208DCB0EC017AF1EC016A0132964202
:101CB000E6EE877AF4DA01344445E7EC017AA5F1DF
:101CC0000405E2D1649A032A53D8DFE802F0CAB6C9
:101CD000B65BB7EE000A30EE488A00283FF4E7AE64
:101CE0004046019200F0BCF9019A38EE408ADEE6E7
:101CF0004FF0010C05E70BF1FF3155F8213003F0EF
:101D00007F0345F82130CFE6914655F82C20009E00
:101D10006346A8F10808002A8ED10CF18042013AEE
:101D200005EB820252F80419013BA8F108080029CA
:101D3000F8D081E74A46DFED797A002A40F0C28088
:101D40009DED2E7A059A002BC2ED007A77EE677A28
:101D50000CDD2FA90122B1EC017A0132934277EE1A
:101D6000877AF8DA4B46002B40F0B880059BC3ED2C
:101D7000017A19EE903A03F0070057B0BDEC048BDE
:101D8000BDE8F08F002B40F3C480980056AA0244AF
:101D90000DF1B80E03F1804152ED286A01390EEBC6
:101DA000830272ED017A37EEA67A964577EEC77A0E
:101DB00082ED007A77EEA67AF0EE476AC2ED017AFC
:101DC000EFD1012B40F3A58056AB184489000B1DC1
:101DD00050ED286A73442FAA73ED017A37EEA67A84
:101DE0009A4277EEC77A83ED007A77EEA67AF0EE24
:101DF000476AC3ED017AEFD10831DFED487A0EEB87
:101E000001030EF1080E33ED017A9E4577EE877AD5
:101E1000F9D14B46DDED2E6A9DED2F7A2BB1F1EE17
:101E2000666AB1EE477AF1EE677A059BC3ED006A08
:101E300083ED017AC3ED027A9BE7002BFFF67AAFC0
:101E40002EA901EB8302DFED357A043232ED017AFF
:101E5000914277EE877AF9D14A46002A3FF470AF73
:101E600030E0DFED2E7AF4443CED017AE64577EE82
:101E7000877AF9D14B460BB1F1EE677A059BC3ED3A
:101E8000007A76E719EE903ABBF1000F03F10103F7
:101E900009EE903A37DD0222E1E5DFED207A0134E8
:101EA0004445E7EC017AA5F104057FF4EEAE09E7BD
:101EB0000020E7E5BDEEC00A5B4610EE102A45F8AB
:101EC0002B20B9E6DDED2E6A059AB1EE677A002B7C
:101ED00076EEE77A82ED007A3FF73BAFF1EE677A74
:101EE00044E7649A032A3FF644AF01A151F822F077
:101EF000011F00083B1E00083B1E0008851D00084E
:101F0000DFED067AB6E7F7EE007A37EEC88A0222EE
:101F1000CDE5DFED027A7CE7E84200080000000032
:101F200010EE103A23F00043B3F1485F04DAFDEEFF
:101F3000C07A17EE903A23B360EE007A9FED155AFF
:101F4000DFED155A9FED156ADFED156A9FED157AE5
:101F5000E7EE855A20EE275AA5EEA76AE6EE276A35
:101F6000A6EEA77A70B127EE457AF6EE006AA0EEEB
:101F7000A67ADFED0D6AD7EE270AE5EE260A30EEE7
:101F8000600A7047DFED096AE7EE876AA6EE850A08
:101F9000704700BFD3C92E2F342FD7B21BEF38366E
:101FA000010D50B98988083CABAA2A3EABAA2ABECB
:101FB00010EE903A43F0004000F58010C00F7047DB
:101FC0000020704710EE103A23F0004300EE103A64
:101FD000704700BF10EE102A22F00041CB0D7F3B6E
:101FE000162B1CDC002B10EE100A1EDB19491941C0
:101FF0000A4227D0DFED187A70EE277AF5EEC07A24
:10200000F1EE10FA1EDD002A04DA4FF4000242FA63
:1020100003F3184420EA010300EE103A7047B1F1CF
:10202000FF4F0FD330EE000A7047DFED0B7A70EEF2
:10203000277AF5EEC07AF1EE10FA03DD002A02DB12
:102040009FED060A70470029FFEE007A18BFB0EE38
:10205000670A7047FFFF7F00CAF249710000000065
:1020600082B08DED010A019B33F0004216D0B2F12F
:10207000FF4F0FD2B2F5000F14D3D20D0244FE2A47
:1020800020DC002A34DD23F0FF4343EAC25300EE94
:10209000103A01E030EE000A02B070479DED010AEF
:1020A00002B070479DED017ADFED1D7A1D4B67EEA2
:1020B000277A9842CDED017A13DB019BC3F3C75217
:1020C000193ADBE79FED180A9FED187A019B002B68
:1020D000F0EE407AB8BFB0EE470A20EE270A02B011
:1020E00070479FED130ADDED017A27EE800AD3E7F2
:1020F00012F1160F08DA4CF250339842E2DC9FEDF1
:102100000C0A9FED0C7AE1E7193223F0FF4343EA12
:10211000C253DFED097A07EE103A27EE270ABBE734
:102120000000004CB03CFFFFCAF24971CAF249F10D
:102130006042A20D6042A28D00000033044A0549AE
:102140001368002B08BF0B461844106018467047F0
:1021500094000020E000002081F0004102E000BF78
:1021600083F0004330B54FEA41044FEA430594EA57
:10217000050F08BF90EA020F1FBF54EA000C55EA92
:10218000020C7FEA645C7FEA655C00F0E2804FEA63
:102190005454D4EB5555B8BF6D420CDD2C4480EA45
:1021A000020281EA030382EA000083EA010180EA75
:1021B000020281EA0303362D88BF30BD11F0004FC3
:1021C0004FEA01314FF4801C4CEA113102D04042F9
:1021D00061EB410113F0004F4FEA03334CEA133334
:1021E00002D0524263EB430394EA050F00F0A7804C
:1021F000A4F10104D5F1200E0DDB02FA0EFC22FA47
:1022000005F2801841F1000103FA0EF2801843FA3A
:1022100005F359410EE0A5F120050EF1200E012A2B
:1022200003FA0EFC28BF4CF0020C43FA05F3C01869
:1022300051EBE37101F0004507D54FF0000EDCF1E2
:10224000000C7EEB00006EEB0101B1F5801F1BD38B
:10225000B1F5001F0CD349085FEA30004FEA3C0C8F
:1022600004F101044FEA445212F5800F80F09A8085
:10227000BCF1004F08BF5FEA500C50F1000041EB89
:10228000045141EA050130BD5FEA4C0C404141EB8D
:10229000010111F4801FA4F10104E9D191F0000FB4
:1022A00004BF01460020B1FA81F308BF2033A3F137
:1022B0000B03B3F120020CDA0C3208DD02F1140C2E
:1022C000C2F10C0201FA0CF021FA02F10CE002F169
:1022D0001402D8BFC2F1200C01FA02F120FA0CFC62
:1022E000DCBF41EA0C019040E41AA2BF01EB0451AB
:1022F000294330BD6FEA04041F3C1CDA0C340EDCA9
:1023000004F11404C4F1200220FA04F001FA02F3EB
:1023100040EA030021FA04F345EA030130BDC4F1A9
:102320000C04C4F1200220FA02F001FA04F340EA9E
:102330000300294630BD21FA04F0294630BD94F04F
:10234000000F83F4801306BF81F480110134013D36
:102350004EE77FEA645C18BF7FEA655C29D094EAA7
:10236000050F08BF90EA020F05D054EA000C04BF25
:102370001946104630BD91EA030F1EBF0021002010
:1023800030BD5FEA545C05D14000494128BF41F0AF
:10239000004130BD14F580043CBF01F5801130BD13
:1023A00001F0004545F0FE4141F470014FF000009E
:1023B00030BD7FEA645C1ABF194610467FEA655C4F
:1023C0001CBF0B46024650EA013406BF52EA0335F1
:1023D00091EA030F41F4002130BD00BF90F0000FDF
:1023E00004BF0021704730B54FF4806404F132041B
:1023F0004FF000054FF0000150E700BF90F0000FD4
:1024000004BF0021704730B54FF4806404F13204FA
:1024100010F0004548BF40424FF000013EE700BFCA
:1024200042004FEAE2014FEA31014FEA02701FBF5A
:1024300012F07F4393F07F4F81F06051704732F08C
:102440007F4208BF704793F07F4F04BF41F40021E3
:10245000704730B54FF4607401F0004521F0004141
:102460001CE700BF50EA010208BF704730B54FF0CB
:1024700000050AE050EA010208BF704730B511F0CC
:10248000004502D5404261EB41014FF4806404F104
:1024900032045FEA915C3FF4D8AE4FF003025FEA8A
:1024A000DC0C18BF03325FEADC0C18BF033202EB0E
:1024B000DC02C2F1200300FA03FC20FA02F001FA68
:1024C00003FE40EA0E0021FA02F11444BDE600BF0B
:1024D00070B54FF0FF0C4CF4E06C1CEA11541DBFBA
:1024E0001CEA135594EA0C0F95EA0C0F00F0DEF885
:1024F0002C4481EA030621EA4C5123EA4C5350EA6A
:10250000013518BF52EA033541F4801143F48013BA
:1025100038D0A0FB02CE4FF00005E1FB02E506F04B
:102520000042E0FB03E54FF00006E1FB03569CF0A0
:10253000000F18BF4EF0010EA4F1FF04B6F5007FA6
:1025400064F5407404D25FEA4E0E6D4146EB060618
:1025500042EAC62141EA55514FEAC52040EA5E50A1
:102560004FEACE2EB4F1FD0C88BFBCF5E06F1ED84B
:10257000BEF1004F08BF5FEA500E50F1000041EB82
:10258000045170BD06F0004646EA010140EA02002F
:1025900081EA0301B4EB5C04C2BFD4EB0C0541EA51
:1025A000045170BD41F480114FF0000E013C00F366
:1025B000AB8014F1360FDEBF002001F0004170BD8A
:1025C000C4F10004203C35DA0C341BDC04F11404A3
:1025D000C4F1200500FA05F320FA04F001FA05F22F
:1025E00040EA020001F0004221F0004110EBD370FC
:1025F00021FA04F642EB06015EEA430E08BF20EA28
:10260000D37070BDC4F10C04C4F1200500FA04F3CA
:1026100020FA05F001FA04F240EA020001F000415C
:1026200010EBD37041F100015EEA430E08BF20EACF
:10263000D37070BDC4F1200500FA05F24EEA020E17
:1026400020FA04F301FA05F243EA020321FA04F046
:1026500001F0004121FA04F220EA020000EBD370FD
:102660005EEA430E08BF20EAD37070BD94F0000FFD
:102670000FD101F00046400041EB010111F4801F31
:1026800008BF013CF7D041EA060195F0000F18BFE2
:10269000704703F00046520043EB030313F4801F1E
:1026A00008BF013DF7D043EA0603704794EA0C0FD8
:1026B0000CEA135518BF95EA0C0F0CD050EA4106EE
:1026C00018BF52EA4306D1D181EA030101F000416B
:1026D0004FF0000070BD50EA410606BF1046194693
:1026E00052EA430619D094EA0C0F02D150EA01369F
:1026F00013D195EA0C0F05D152EA03361CBF1046E0
:1027000019460AD181EA030101F0004141F0FE417E
:1027100041F470014FF0000070BD41F0FE4141F402
:10272000780170BD70B54FF0FF0C4CF4E06C1CEA02
:1027300011541DBF1CEA135594EA0C0F95EA0C0FB7
:1027400000F0A7F8A4EB050481EA030E52EA033572
:102750004FEA013100F088804FEA03334FF0805593
:1027600045EA131343EA12634FEA022245EA1115C0
:1027700045EA10654FEA00260EF000419D4208BF71
:10278000964244F1FD0404F5407402D25B084FEA1E
:102790003202B61A65EB03055B084FEA32024FF4CA
:1027A00080104FF4002CB6EB020E75EB030E22BF27
:1027B000B61A754640EA0C005B084FEA3202B6EBE7
:1027C000020E75EB030E22BFB61A754640EA5C0096
:1027D0005B084FEA3202B6EB020E75EB030E22BF26
:1027E000B61A754640EA9C005B084FEA3202B6EB27
:1027F000020E75EB030E22BFB61A754640EADC00E6
:1028000055EA060E18D04FEA051545EA16754FEA47
:1028100006164FEAC30343EA52734FEAC2025FEA65
:102820001C1CC0D111F4801F0BD141EA00014FF0F4
:1028300000004FF0004CB6E711F4801F04BF0143C5
:102840000020B4F1FD0C88BFBCF5E06F3FF6AFAEE1
:10285000B5EB030C04BFB6EB020C5FEA500C50F171
:10286000000041EB045170BD0EF0004E4EEA1131F4
:1028700014EB5C04C2BFD4EB0C0541EA045170BDFB
:1028800041F480114FF0000E013C90E645EA060E3F
:102890008DE60CEA135594EA0C0F08BF95EA0C0F6D
:1028A0003FF43BAF94EA0C0F0AD150EA01347FF4B5
:1028B00034AF95EA0C0F7FF425AF104619462CE78C
:1028C00095EA0C0F06D152EA03353FF4FDAE1046EF
:1028D000194622E750EA410618BF52EA43067FF440
:1028E000C5AE50EA41047FF40DAF52EA43057FF4D0
:1028F000EBAE12E74FF0FF3C06E000BF4FF0010CDB
:1029000002E000BF4FF0010C4DF804CD4FEA410C3E
:102910007FEA6C5C4FEA430C18BF7FEA6C5C1BD00B
:1029200001B050EA410C0CBF52EA430C91EA030F8C
:1029300002BF90EA020F0020704710F1000F91EAE9
:10294000030F58BF994208BF90422CBFD8176FEAB7
:10295000E37040F0010070474FEA410C7FEA6C5C85
:1029600002D150EA013C07D14FEA430C7FEA6C5C8C
:10297000D6D152EA033CD3D05DF8040B704700BFB8
:102980008446104662468C461946634600E000BF06
:1029900001B5FFF7B7FF002848BF10F1000F01BDD8
:1029A0004DF808EDFFF7F4FF0CBF012000205DF8A3
:1029B00008FB00BF4DF808EDFFF7EAFF34BF012028
:1029C00000205DF808FB00BF4DF808EDFFF7E0FFC1
:1029D00094BF012000205DF808FB00BF4DF808ED12
:1029E000FFF7CEFF94BF012000205DF808FB00BF79
:1029F0004DF808EDFFF7C4FF34BF012000205DF85B
:102A000008FB00BF4FEA410212F5001215D211D5A2
:102A10006FF47873B3EB625212D94FEAC12343F0DB
:102A2000004343EA505311F0004F23FA02F018BF5D
:102A3000404270474FF00000704750EA013005D126
:102A400011F0004008BF6FF0004070474FF00000E9
:102A5000704700BF4FEA4102B2F1E04324BFB3F533
:102A6000001CDCF1FE5C0DD901F0004C4FEAC00205
:102A70004CEA5070B2F1004F40EB830008BF20F0E9
:102A80000100704711F0804F21D113F13872BCBFA3
:102A900001F00040704741F480114FEA5252C2F1F8
:102AA0001802C2F1200C10FA0CF320FA02F018BF41
:102AB00040F001004FEAC1234FEAD32303FA0CFC94
:102AC00040EA0C0023FA02F34FEA4303CCE77FEA23
:102AD000625307D150EA01331EBF4FF0FE4040F46D
:102AE0004000704701F0004040F0FE4040F400001C
:102AF000704700BF53B94AB9002908BF00281CBF5E
:102B00004FF0FF314FF0FF3000F072B9ADF1080C1B
:102B10006DE904CE00F006F8DDF804E0DDE90223FB
:102B200004B070472DE9F047089E04468846002B04
:102B30004BD18A42154667D9B2FA82F24AB1C2F144
:102B4000200701FA02F320FA07F7954047EA030845
:102B500094404FEA154E230CB8FBFEF71FFA85FC94
:102B60000EFB178843EA084307FB0CF1994209D989
:102B7000EB1807F1FF3080F01B81994240F2188179
:102B8000023F2B445B1AA4B2B3FBFEF00EFB1033E2
:102B900044EA034400FB0CFCA44509D92C1900F1BC
:102BA000FF3380F00781A44540F2048102382C44B1
:102BB00040EA0740A4EB0C0400271EB1D4400023D8
:102BC000C6E900433946BDE8F0878B4209D9002E9B
:102BD00000F0EB800027C6E9000138463946BDE821
:102BE000F087B3FA83F7002F47D18B4202D382429A
:102BF00000F2FA80841A61EB030301209846002E4C
:102C0000E0D0C6E90048DDE702B9FFDEB2FA82F2A1
:102C1000002A40F08F80491B4FEA154E1FFA85F8B5
:102C20000127B1FBFEFC230C0EFB1C1143EA014300
:102C300008FB0CF1994207D9EB180CF1FF3002D2D6
:102C4000994200F2CD808446591AA3B2B1FBFEF03E
:102C50000EFB101443EA044408FB00F8A04507D912
:102C60002C1900F1FF3302D2A04500F2B6801846BD
:102C7000A4EB080440EA0C409FE7C7F1200CBB40DE
:102C800022FA0CFE4EEA030E01FA07F420FA0CF5C4
:102C900021FA0CF34FEA1E482543B3FBF8F92C0C3C
:102CA00008FB19331FFA8EFA44EA034309FB0AF4BE
:102CB0009C4202FA07F200FA07F10BD91EEB03035C
:102CC00009F1FF3080F087809C4240F28480A9F1B6
:102CD000020973441B1BADB2B3FBF8F008FB1033C1
:102CE00045EA034400FB0AFAA24508D91EEB040496
:102CF00000F1FF336BD2A24569D90238744440EA2F
:102D00000940A0FB0289A4EB0A044C45C2464B468D
:102D100054D351D0002E69D0B1EB0A0564EB030403
:102D200004FA0CFCFD40FC404CEA0505C6E90054E1
:102D3000002747E7C2F1200320FA03F7954001FA84
:102D400002F021FA03F34FEA154E3843010CB3FBAE
:102D5000FEF71FFA85F80EFB173341EA034107FB24
:102D600008F38B4204FA02F407D9691807F1FF3C13
:102D70002FD28B422DD9023F2944CB1A81B2B3FB0B
:102D8000FEF00EFB103341EA034100FB08F38B42D7
:102D900007D9691800F1FF3C17D28B4215D90238C8
:102DA0002944C91A40EA07473BE73746304609E756
:102DB0000746E7E61846FBE64145ABD2B8EB020A08
:102DC00069EB0E0201381346A4E76046E9E71846AE
:102DD00095E76746D1E781467CE702382C4447E710
:102DE000ACF1020C2B442FE7384608E73746E9E6FA
:102DF000704700BF014B1868704700BF00000020FB
:102E000030B58BB000240594069407940894099477
:102E10000194224B1A6B42F004021A631A6B02F0FF
:102E200004020192019A02941A6B42F080021A6322
:102E30001A6B02F080020292029A03941A6B42F01B
:102E400001021A631A6B02F001020392039A0494BE
:102E50001A6B42F002021A631B6B03F00203049325
:102E6000049B0F4D22462021284600F007FF4FF417
:102E7000005305930B4B0693079405A90A4800F0ED
:102E80002BFE20230593012306930794089405A99C
:102E9000284600F021FE0BB030BD00BF00380240D4
:102EA00000000240000021100008024008B5084858
:102EB000084B03604FF46123436000238360C360C9
:102EC00003610C2242618361C36100F02CFA08BDEA
:102ED000980000200044004030B595B03022002119
:102EE00008A8FDF7C5F900240394049405940694FA
:102EF000079401941B4B1A6C42F080521A641B6CAD
:102F000003F080530193019B0294174A136823F442
:102F1000404343F400431360136803F440430293B7
:102F2000029B0225089501230B9310230C930E9509
:102F30000F9410934FF4A873119304231293072353
:102F4000139308A800F090FA0F23039304950594B7
:102F50004FF4805306930794294603A800F0E6FC3B
:102F600015B030BD003802400070004030B585B06B
:102F700000F00CFFFFF7B0FFFFF742FFFFF796FFEF
:102F80000024013407EE904AB8EEE70AF3EE047A23
:102F900080EE270AFEF776F810EE105A8DED000A43
:102FA000FEF728F88DED010A2846FFF739FA41ECC3
:102FB000100BFEF7B1F851EC100BFFF74BFD029030
:102FC0000198FFF72DFA41EC100BFEF7A5F851EC34
:102FD000100BFFF73FFD03900421684600F044FF0B
:102FE000142000F0FFFECCE77047FEE7FEE7FEE7A7
:102FF000FEE770477047704708B500F0E1FE08BD76
:1030000000B583B0002100910C4B5A6C42F4804211
:103010005A645A6C02F480420092009A01911A6C30
:1030200042F080521A641B6C03F080530193019BA1
:10303000072000F029FE03B05DF804FB00380240D1
:1030400000B589B000230393049305930693079377
:103050000268144B9A4202D009B05DF804FB0021CB
:10306000019103F5FA331A6C42F400321A641A6CB7
:1030700002F400320192019A02911A6B42F00102AD
:103080001A631B6B03F001030293029B0C2303934F
:10309000022304930723079303A9034800F01CFDB0
:1030A000DAE700BF00440040000002402DE9F04B89
:1030B00004460268136923F44053C1680B4313614B
:1030C00083680269134342691343C2691A43016862
:1030D000CB6823F4164323F00C031343CB60026840
:1030E000536923F4407381690B435361C369B3F59A
:1030F000004F3BD00368714A934200F0AB8002F569
:103100008062934200F0A68000F0C6FC4FF00009F8
:10311000061849EB090716EB000B47EB090C4FEAC1
:10312000CC0343EA5B734FEACB0293469C46636849
:103130009A009B0F10EB0B0049EB0C01FFF7DAFC38
:103140005F4DA5FB00325109642202FB11021301FD
:103150003233A5FB03235B0903F0F00202EB0112FB
:1031600003F00F03216813448B60A4E00368534A03
:10317000934239D002F58062934235D000F08CFC46
:1031800083464FF0000C06184CEB0C0716EB0008BA
:1031900047EB0C094FEAC90343EA58734FEAC802E8
:1031A0009046994662680021921841EB01031BEB9F
:1031B00008004CEB0901FFF79DFC414DA5FB0032D7
:1031C0005109642202FB1102D3003233A5FB032311
:1031D0005B095A0002F4F87202EB011203F00703D4
:1031E000216813448B6066E000F066FC80464FF077
:1031F0000009061849EB090716EB000B47EB090C11
:103200004FEACC0343EA5B734FEACB0293469C46FA
:1032100062680021921841EB010318EB0B0049EBA7
:103220000C01FFF767FC264DA5FB00325109642213
:1032300002FB1102D3003233A5FB03235B095A00C2
:1032400002F4F87202EB011203F007032168134441
:103250008B6030E000F030FC4FF00009061849EBBD
:10326000090716EB000B47EB090C4FEACC0343EAC6
:103270005B734FEACB0293469C4663689A009B0FB0
:1032800010EB0B0049EB0C01FFF734FC0C4DA5FBD8
:1032900000325109642202FB110213013233A5FBF3
:1032A00003235B0903F0F00202EB011203F00F03AA
:1032B000216813448B60BDE8F08B00BF0010014013
:1032C0001F85EB512DE9F04105460F4616469846FD
:1032D000069C2B681B6837EA03030CBF01230023FD
:1032E000B3421DD1B4F1FF3FF3D02CB100F074FD17
:1032F000A0EB0800A042ECD92A68D36823F4D0736D
:10330000D3602A68536923F001035361202385F8B1
:10331000393085F83A30002385F83830032000E052
:103320000020BDE8F08158B310B5044690F839305C
:103330000BB3242384F839302268D36823F4005374
:10334000D3602046FFF7B2FE2268136923F490434E
:1033500013612268536923F02A0353612268D368FA
:1033600043F40053D3600020E063202384F8393015
:1033700084F83A3010BD80F83830FFF761FED8E7A6
:10338000012070472DE9F04383B01E4690F8393094
:10339000DBB2202B56D104460D469046002956D06C
:1033A000002A56D090F83830012B54D0012380F8F1
:1033B00038304FF00009C0F83C90212380F83930B4
:1033C00000F00AFD0746A4F82480A4F8268084F8BB
:1033D000389010E000963B46002280212046FFF7FF
:1033E00071FF002839D12B882268C3F3080353608A
:1033F0002369C3B90235E38C9BB2B3B1E38C013BC3
:103400009BB2E384A368B3F5805FE3D000963B46AC
:10341000002280212046FFF755FF00BB2A78236851
:103420005A600135E7E70135E5E700963B460022A3
:1034300040212046FFF746FF034690B9202284F83A
:10344000392000E00223184603B0BDE8F0830123D1
:10345000F9E70123F7E70223F5E70323F3E7032363
:10346000F1E70323EFE70000002800F0E48170B5E6
:1034700082B00446036813F0010F3BD0A74B9B6852
:1034800003F00C03042B2CD0A44B9B6803F00C031B
:10349000082B21D06368B3F5803F4FD0B3F5A02F40
:1034A00052D09E4B1A6822F480321A601A6822F4B5
:1034B00080221A606368002B50D000F08DFC054616
:1034C000964B1B6813F4003F14D100F085FC401BA1
:1034D0006428F5D90320B3E1904B5B6813F4800FA7
:1034E000D8D08E4B1B6813F4003F03D06368002BC9
:1034F00000F0A381236813F0020F55D0874B9B681F
:1035000013F00C0F3ED0854B9B6803F00C03082B87
:1035100033D0E368002B68D0814B01221A6000F0A1
:103520005BFC05467D4B1B6813F0020F54D100F085
:1035300053FC401B0228F5D9032081E1774A136828
:1035400043F480331360B5E7744B1A6842F4802269
:103550001A601A6842F480321A60ABE700F03CFC53
:1035600005466E4B1B6813F4003FC3D000F034FCDB
:10357000401B6428F5D9032062E1684B5B6813F4B3
:10358000800FC6D1654B1B6813F0020F04D0E368AF
:10359000012B01D0012053E1604A136823F0F803A6
:1035A000216943EAC1031360236813F0080F40D078
:1035B000636963B35B4B01221A6000F00DFC0546A2
:1035C000564B5B6F13F0020F33D100F005FC401B2C
:1035D0000228F5D9032033E1504A136823F0F80399
:1035E000216943EAC1031360DEE74D4B00221A60F4
:1035F00000F0F2FB0546494B1B6813F0020FD3D0D5
:1036000000F0EAFB401B0228F5D9032018E1454BE6
:1036100000221A6000F0E0FB0546404B5B6F13F0A0
:10362000020F06D000F0D8FB401B0228F5D903207A
:1036300006E1236813F0040F79D0384B1B6C13F0AC
:10364000805F33D100230193344B1A6C42F08052D7
:103650001A641B6C03F080530193019B0125324BCC
:103660001B6813F4807F23D0A368012B34D0052B73
:1036700038D02A4B1A6F22F001021A671A6F22F013
:1036800004021A67A368002B36D000F0A5FB06469B
:10369000224B1B6F13F0020F48D100F09DFB801BE3
:1036A00041F288339842F3D90320C9E00025D6E7D8
:1036B0001D4A136843F48073136000F08DFB0646C7
:1036C000194B1B6813F4807FCED100F085FB801B63
:1036D0000228F5D90320B3E0104A136F43F0010329
:1036E0001367CFE70D4B1A6F42F004021A671A6F87
:1036F00042F001021A67C5E700F06EFB0646074B71
:103700001B6F13F0020F11D000F066FB801B41F21B
:1037100088339842F3D9032092E000BF003802407A
:1037200000004742800E474200700040EDB9A36997
:10373000002B00F08480454A926802F00C02082AAF
:1037400051D0022B17D0424B00221A6000F044FBEC
:1037500004463E4B1B6813F0007F42D000F03CFB58
:10376000001B0228F5D903206AE0384A136C23F0C5
:1037700080531364DBE7364B00221A6000F02CFB09
:103780000546324B1B6813F0007F06D000F024FB87
:10379000401B0228F5D9032052E0E369226A134353
:1037A000626A43EA8213A26A5208013A43EA024378
:1037B000E26A43EA0263254A5360254B01221A60FC
:1037C00000F00AFB0446214B1B6813F0007F06D172
:1037D00000F002FB001B0228F5D9032030E0002096
:1037E0002EE000202CE0012B2CD0184B9B6803F41A
:1037F0008001E269914201D0012021E003F03F0203
:10380000216A8A4201D001201AE0616A47F6C0723B
:103810001A408A4201D0012012E003F44032A16A2A
:103820008A4201D001200BE003F07063E26A934208
:103830000AD0012004E001207047012000E00020B0
:1038400002B070BD0120FBE70020F9E7003802401C
:1038500060004742324B9B6803F00C03042B5CD0A2
:10386000082B01D02F4870472DE9F04B2C4B5A689C
:1038700002F03F025B6813F4800F2BD0284B5B688B
:10388000C3F388131E4600275C010025E41A65EB8C
:103890000705A90141EA9461A001001B61EB050144
:1038A000CB0043EA5073C400A01943EB07014B025D
:1038B00043EAD0534402204619460023FFF71AF981
:1038C000174B5B68C3F3014301335B00B0FBF3F0BC
:1038D000BDE8F08B124B5B68C3F388131E460027CC
:1038E0005C010025E41A65EB0705A90141EA946132
:1038F000A001001B61EB0501CB0043EA5073C4003B
:10390000A01943EB07018B0243EA9053840220463F
:1039100019460023FFF7EEF8D2E70348704700BFCF
:10392000003802400024F40000127A00002800F061
:103930009E8070B50446504B1B6803F00F038B420A
:1039400009D2CBB24C4A1370136803F00F038B42B9
:1039500001D0012070BD236813F0020F17D013F0BF
:10396000040F04D0454A936843F4E05393602368FE
:1039700013F0080F04D0414A936843F46043936006
:103980003E4A936823F0F003A068034393600D461A
:10399000236813F0010F32D06368012B21D09A1EE7
:1039A000012A25D9354A126812F0020F61D0334935
:1039B0008A6822F0030213438B6000F00DFA06467A
:1039C0002E4B9B6803F00C036268B3EB820F16D09A
:1039D00000F002FA801B41F288339842F0D90320AC
:1039E000B8E7264A126812F4003FE0D10120B1E79F
:1039F000224A126812F0007FD9D10120AAE71E4B9B
:103A00001B6803F00F03AB4209D9EAB21A4B1A70D4
:103A10001B6803F00F03AB4201D001209AE7236833
:103A200013F0040F06D0154A936823F4E053E168BD
:103A30000B439360236813F0080F07D00F4A936875
:103A400023F46043216943EAC1039360FFF702FF57
:103A50000A4B9B68C3F30313094AD35CD840094B54
:103A60001860094B186800F06BF9002072E701201C
:103A7000704701206EE700BF003C02400038024062
:103A8000104300086C00002068000020014B1868FB
:103A9000704700BF6C00002008B5FFF7F7FF044B2C
:103AA0009B68C3F38223034AD35CD84008BD00BFA0
:103AB000003802402043000808B5FFF7E7FF044B39
:103AC0009B68C3F34233034AD35CD84008BD00BFB0
:103AD000003802402043000800230F2B00F2C5806D
:103AE000F0B583B039E0042200E00022AA403A4356
:103AF00002345E4D45F824205D4A1468F24302EA20
:103B000004054F6817F4803F01D046EA0405584C7D
:103B10002560646802EA04054F6817F4003F01D08D
:103B200046EA0405524C6560A46802EA04054F6841
:103B300017F4801F01D046EA04054D4CA560E468E7
:103B400022404D6815F4001F01D046EA0402484C9B
:103B5000E26001330F2B00F2868001229A400C684C
:103B600004EA0206B242F4D14C68651E012D03D965
:103B7000112C01D0122C12D185685F000324BC40A7
:103B800025EA0405CC68BC402C438460456825EADE
:103B900002054C68C4F300129A402A434260C4688C
:103BA0005F000322BA40D24314408D68BD402543D4
:103BB000C5604C68022C01D0122C13D1DD080835E9
:103BC00050F825E003F007044FEA840C0F2404FAB0
:103BD0000CF42EEA040E0C6904FA0CF444EA0E0408
:103BE00040F82540046822404C6804F00304BC40BF
:103BF000224302604A6812F0805FAAD0002201923C
:103C00001C4A546C44F480445464526C02F4804264
:103C10000192019A9C08A51C144A52F8257003F0E1
:103C2000030295000F22AA4027EA0207124A904297
:103C30003FF45BAF02F5806290420ED002F58062E5
:103C400090420CD002F5806290420AD002F5806268
:103C500090423FF448AF072248E7012246E702229C
:103C600044E7032242E703B0F0BD7047003801404B
:103C7000003C0140003802400000024012B9090433
:103C80008161704781617047074AD36823F4E0631C
:103C90001B041B0C000200F4E060184340F0BF60FE
:103CA00040F40030D060704700ED00E030B4174BB6
:103CB000DB68C3F30223C3F10704042C28BF0424E8
:103CC0001D1D062D18D9033B4FF0FF3505FA04F4EE
:103CD00021EA0401994005FA03F322EA0303194398
:103CE00000280BDB0901C9B200F1604000F561401A
:103CF00080F8001330BC70470023E5E700F00F00A8
:103D00000901C9B2024B1954F4E700BF00ED00E00D
:103D100014ED00E00138B0F1807F0AD2064B586004
:103D2000064AF02182F823100020986007221A60CA
:103D300070470120704700BF10E000E000ED00E098
:103D400010B504460E4B18784FF47A73B3FBF0F3BA
:103D50000C4A1068B0FBF3F0FFF7DCFF68B90F2CDA
:103D600001D901200AE0002221464FF0FF30FFF781
:103D70009DFF054B1C60002000E0012010BD00BF2E
:103D8000650000206C0000206800002008B50B4B87
:103D90001A6842F400721A601A6842F480621A606B
:103DA0001A6842F480721A600320FFF76DFF00204A
:103DB000FFF7C6FFFFF724F9002008BD003C0240D2
:103DC000034A1168034B1B780B441360704700BF14
:103DD000D800002065000020014B1868704700BF24
:103DE000D800002038B50446FFF7F6FF0546B4F1C9
:103DF000FF3F02D0044B1B781C44FFF7EDFF401B34
:103E0000A042FAD338BD00BF65000020054BD3F8AF
:103E1000882042F47002C3F888204FF000629A6054
:103E2000704700BF00ED00E000B585B010EE102A2D
:103E3000130E0193C2F307430093C2F30723D2B2D8
:103E4000074902A8FCF77CFA0A2308220DEB0201BD
:103E50000448FFF797FA002005B05DF804FB00BFA7
:103E6000284300089800002070B582B006460D4631
:103E7000002406E006EB840393ED000AFFF7D4FF6D
:103E80000134AC42F6DB0A2302A921F8043D0122E9
:103E90000248FFF777FA002002B070BD98000020BA
:103EA000DFF834D0002103E00C4B5B584350043161
:103EB0000B480C4B42189A42F6D30B4A02E00023FF
:103EC00042F8043B094B9A42F9D3FFF79FFFFCF7F6
:103ED000ABF9FFF74BF87047008001208C430008D6
:103EE000000000207000002070000020E000002092
:103EF000FEE70000F8B500BFF8BC08BC9E4670475E
:0C3F0000F8B500BFF8BC08BC9E46704736
:103F10000000E0FE422EE63F0000E0FE422EE6BF3B
:103F2000763C7935EF39EA3D763C7935EF39EABDB3
:103F3000000000000000E03F000000000000E0BFC3
:103F4000000FC93F000F494000CB9640000FC94009
:103F50000053FB4000CB164100ED2F41000F4941BB
:103F60000031624100537B41003A8A4100CB9641C7
:103F7000005CA34100EDAF41007EBC41000FC94190
:103F800000A0D5410031E24100C2EE410053FB41A7
:103F900000F20342003A0A420083104200CB16426C
:103FA00000141D42005C234200A5294200ED2F426F
:103FB00000363642007E3C4200C74242000F494272
:103FC000A2000000F9000000830000006E00000065
:103FD0004E00000044000000150000002900000011
:103FE000FC0000002700000057000000D100000086
:103FF000F500000034000000DD000000C0000000FB
:10400000DB00000062000000950000009900000045
:104010003C00000043000000900000004100000050
:10402000FE0000005100000063000000AB00000033
:10403000DE000000BB000000C500000061000000C1
:10404000B7000000240000006E0000003A000000ED
:10405000420000004D000000D2000000E00000001F
:1040600006000000490000002E000000EA000000E9
:1040700009000000D1000000920000001C000000B8
:10408000FE0000001D000000EB0000001C0000000E
:10409000B100000029000000A70000003E00000061
:1040A000E80000008200000035000000F50000007C
:1040B0002E000000BB00000044000000840000004F
:1040C000E90000009C0000007000000026000000D5
:1040D000B40000005F0000007E000000410000000E
:1040E0003900000091000000D600000039000000F7
:1040F000830000005300000039000000F4000000BD
:104100009C000000840000005F0000008B000000A5
:10411000BD000000F9000000280000003B00000086
:104120001F000000F800000097000000FF000000E2
:10413000DE00000005000000980000000F000000F5
:10414000EF0000002F000000110000008B000000B5
:104150005A0000000A0000006D0000001F0000006F
:104160006D000000360000007E000000CF0000005F
:1041700027000000CB00000009000000B70000008D
:104180004F000000460000003F00000066000000F5
:104190009E0000005F000000EA0000002D0000000B
:1041A0007500000027000000BA000000C7000000F2
:1041B000EB000000E5000000F10000007B000000C3
:1041C0003D0000000700000039000000F70000007B
:1041D0008A0000005200000092000000EA00000087
:1041E0006B000000FB0000005F000000B100000059
:1041F0001F0000008D0000005D00000008000000AE
:1042000056000000030000003000000046000000DF
:10421000FC0000007B0000006B000000AB00000011
:10422000F0000000CF000000BC00000020000000F3
:104230009A000000F4000000360000001D0000009D
:10424000A9000000E30000009100000061000000F0
:104250005E000000E60000001B00000008000000F7
:104260006500000099000000850000005F0000006C
:1042700014000000A00000006800000040000000E2
:104280008D000000FF000000D8000000800000004A
:104290004D00000073000000270000003100000006
:1042A0000600000006000000150000005600000097
:1042B000CA00000073000000A8000000C900000050
:1042C00060000000E20000007B000000C000000071
:1042D0008C0000006B0000000400000007000000DC
:1042E000090000000000C93F0000F0390000DA3783
:1042F0000000A2330000842E0000502B0000C227D3
:104300000000D0220000C41F0000C61B000044179C
:104310000000000000000000010203040607080975
:104320000000000001020304253032782530327885
:10433000253032782530327800000000232D302BD4
:1043400020000000686C4C00656667454647000029
:1043500030313233343536373839414243444546BB
:10436000000000003031323334353637383961627D
:0C43700063646566000000006578700062
:08437C00A8E7FF7F010000002B
:044384000902000822
:04438800E101000847
:10438C0004000020000000000000000000000000FD
:10439C000000000000000000000000000000000011
:1043AC000000000000000000000000000000000001
:1043BC0000000000000000000000000000000000F1
:1043CC0000000000000000000000000000000000E1
:1043DC0000000000000000000000000000000000D1
:1043EC000000000001010000100000000024F40097
:0400000508003EA110
:00000001FF
