:020000040800F2
:10000000008001201D100008890300088B030008F0
:100010008D0300088F030008910300080000000012
:100020000000000000000000000000009303000832
:1000300095030008000000009703000899030008DA
:100040006D1000086D1000086D1000086D1000089C
:100050006D1000086D1000086D1000086D1000088C
:100060006D1000086D1000086D1000086D1000087C
:100070006D1000086D1000086D1000086D1000086C
:100080006D1000086D1000086D10000800000000E1
:100090000000000000000000000000006D100008DB
:1000A0006D1000086D1000086D1000086D1000083C
:1000B0006D1000086D1000086D1000086D1000082C
:1000C0006D1000086D1000086D1000086D1000081C
:1000D0006D1000086D1000086D1000080000000091
:1000E0006D1000086D1000086D1000080000000081
:1000F0000000000000000000000000006D1000087B
:10010000000000006D1000086D1000086D10000860
:1001100000000000000000000000000000000000DF
:100120006D1000086D1000086D1000086D100008BB
:100130006D1000080000000000000000000000003A
:100140000000000000000000000000006D1000082A
:100150006D1000086D1000086D1000086D1000088B
:100160006D1000086D100008000000000000000085
:10017000000000000000000000000000000000007F
:10018000000000006D1000080000000000000000EA
:040190006D100008E6
:1001940053B94AB9002908BF00281CBF4FF0FF31EA
:1001A4004FF0FF3000F00CB8ADF1080C6DE904CE4F
:1001B40000F088FFDDF804E0DDE9022304B07047B5
:1001C400704700BF10B5054C227832B9044B13B107
:1001D4000448AFF300800123237010BD0C000020FD
:1001E400000000007413000808B5034B1BB1034959
:1001F4000348AFF3008008BD000000001000002099
:100204007413000830B58BB0002405940694079449
:10021400089409940194224B1A6B42F004021A6365
:100224001A6B02F004020192019A02941A6B42F0D2
:1002340080021A631A6B02F080020292029A0394FB
:100244001A6B42F001021A631A6B02F00102039264
:10025400039A04941A6B42F002021A631B6B03F0B4
:1002640002030493049B0F4D22462021284600F0EC
:1002740011FE4FF4005305930B4B0693079405A905
:100284000A4800F033FD20230593012306930794C5
:10029400089405A9284600F029FD0BB030BD00BF25
:1002A4000038024000000240000021100008024013
:1002B40008B50848084B03604FF4612343600023EA
:1002C4008360C36003610C2242618361C36100F0F7
:1002D400ABF908BD280000200044004030B595B0BB
:1002E4003022002108A800F0E5FE002403940494C1
:1002F40005940694079401941B4B1A6C42F08052A7
:100304001A641B6C03F080530193019B0294174AF7
:10031400136823F4404343F400431360136803F465
:1003240040430293029B0225089501230B9310235B
:100334000C930E950F9410934FF4A8731193042308
:1003440012930723139308A800F09EF90F23039335
:10035400049505944FF4805306930794294603A803
:1003640000F0EEFB15B030BD0038024000700040D4
:1003740008B500F017FEFFF7B1FFFFF743FFFFF7E3
:1003840097FFFEE77047FEE7FEE7FEE7FEE77047EC
:100394007047704708B500F01FFE08BD82B0002109
:1003A40000910B4B5A6C42F480425A645A6C02F42A
:1003B40080420092009A01911A6C42F080521A64B1
:1003C4001B6C03F080530193019B02B0704700BF84
:1003D4000038024000B589B00023039304930593C9
:1003E400069307930268144B9A4202D009B05DF851
:1003F40004FB0021019103F5FA331A6C42F4003234
:100404001A641A6C02F400320192019A02911A6B76
:1004140042F001021A631B6B03F001030293029B77
:100424000C230393022304930723079303A903488C
:1004340000F05CFCDAE700BF00440040000002402A
:1004440070B504460268136923F44053C1680B4332
:10045400136183680269134342691343C2691A43EF
:100464000168CB6823F4164323F00C031343CB60D9
:100474000268536923F4407381690B435361C36970
:10048400B3F5004F36D00368654A934200F09A8072
:1004940002F58062934200F0958000F007FC00268C
:1004A400051846EB06012D1846EB0101CB0043EA83
:1004B4005573EA001546194663689A009B0F28187D
:1004C40046EB0101FFF764FE564DA5FB00325109CE
:1004D400642303FB11031B013233A5FB03235B09D4
:1004E40003F0F00202EB011203F00F03216813443E
:1004F4008B6093E003684A4A934233D002F58062EA
:1005040093422FD000F0D2FB0026051846EB0601DB
:100514002D1846EB0101CB0043EA5573EA0015465A
:10052400194662683346921846EB0303281846EBD3
:100534000101FFF72DFE3B4DA5FB00325109642359
:1005440003FB1103DB003233A5FB03235B095A00D1
:1005540002F4F87202EB011203F00703216813445A
:100564008B605BE000F0B2FB0026051846EB060149
:100574002D1846EB0101CB0043EA5573EA001546FA
:10058400194662683346921846EB0303281846EB73
:100594000101FFF7FDFD234DA5FB00325109642342
:1005A40003FB1103DB003233A5FB03235B095A0071
:1005B40002F4F87202EB011203F0070321681344FA
:1005C4008B602BE000F082FB0026051846EB060149
:1005D4002D1846EB0101CB0043EA5573EA0015469A
:1005E400194663689A009B0F281846EB0101FFF730
:1005F400CFFD0C4DA5FB00325109642303FB11030D
:100604001B013233A5FB03235B0903F0F00202EB69
:10061400011203F00F03216813448B6070BD00BF07
:10062400001001401F85EB5158B310B5044690F8F3
:1006340039300BB3242384F839302268D36823F487
:100644000053D3602046FFF7FBFE2268136923F4AE
:10065400904313612268536923F02A03536122688B
:10066400D36843F40053D3600020E063202384F86C
:10067400393084F83A3010BD80F83830FFF7AAFEDC
:10068400D8E7012070470000002800F0D98170B538
:1006940082B00446036813F0010F3BD0A64B9B685D
:1006A40003F00C03042B2CD0A34B9B6803F00C0326
:1006B400082B21D06368B3F5803F4FD0B3F5A02F4A
:1006C40052D09D4B1A6822F480321A601A6822F4C0
:1006D40080221A606368002B50D000F089FC054624
:1006E400954B1B6813F4003F14D100F081FC401BB0
:1006F4006428F5D90320AAE18F4B5B6813F4800FBB
:10070400D8D08D4B1B6813F4003F03D06368002BD3
:1007140000F09881236813F0020F54D0864B9B6835
:1007240013F00C0F3ED0844B9B6803F00C03082B92
:1007340033D0E368002B67D0804B01221A6000F0AD
:1007440057FC05467C4B1B6813F0020F53D100F095
:100754004FFC401B0228F5D9032078E1764A136840
:1007640043F480331360B5E7734B1A6842F4802274
:100774001A601A6842F480321A60ABE700F038FC61
:1007840005466D4B1B6813F4003FC3D000F030FCEA
:10079400401B6428F5D9032059E1674B5B6813F4C7
:1007A400800FC6D1644B1B6813F0020F03D0E368BB
:1007B400012B40F04981604A136823F0F803216952
:1007C40043EAC1031360236813F0080F40D0636940
:1007D40063B35B4B01221A6000F00AFC0546564BDA
:1007E4005B6F13F0020F33D100F002FC401B0228B0
:1007F400F5D903202BE1504A136823F0F80321694B
:1008040043EAC1031360DEE74C4B00221A6000F098
:10081400EFFB0546484B1B6813F0020FD3D000F0E2
:10082400E7FB401B0228F5D9032010E1444B0022CA
:100834001A6000F0DDFB05463F4B5B6F13F0020FBF
:1008440006D000F0D5FB401B0228F5D90320FEE0BA
:10085400236813F0040F78D0374B1B6C13F0805FC0
:100864000DD100230193344B1A6C42F080521A6468
:100874001B6C03F080530193019B012500E00025CC
:10088400304B1B6813F4807F21D0A368012B32D036
:10089400052B36D0284B1A6F22F001021A671A6F03
:1008A40022F004021A67A368002B34D000F0A0FBE6
:1008B4000646214B1B6F13F0020F45D100F098FB45
:1008C400801B41F288339842F3D90320BFE01D4ACC
:1008D400136843F48073136000F08AFB0646194BD7
:1008E4001B6813F4807FD0D100F082FB801B0228A8
:1008F400F5D90320ABE0104A136F43F001031367EB
:10090400D1E70D4B1A6F42F004021A671A6F42F0D6
:1009140001021A67C7E700F06BFB0646064B1B6F24
:1009240013F0020F10D000F063FB801B41F28833F8
:100934009842F3D903208AE000380240000047427D
:10094400800E474200700040E5B9A369002B7DD0BA
:10095400464A926802F00C02082A51D0022B17D0A2
:10096400434B00221A6000F043FB04463F4B1B68D4
:1009740013F0007F42D000F03BFB001B0228F5D9A6
:10098400032064E0394A136C23F080531364DCE7DA
:10099400374B00221A6000F02BFB0546334B1B68D3
:1009A40013F0007F06D000F023FB401B0228F5D98A
:1009B40003204CE0E369226A1343626A43EA821328
:1009C400A26A5208013A43EA0243E26A43EA026332
:1009D400264A5360264B01221A6000F009FB0446A4
:1009E400224B1B6813F0007F06D100F001FB001BB3
:1009F4000228F5D903202AE0002028E0002026E080
:100A0400012B26D0194B9B6803F48001E2699142C3
:100A140021D103F03F02216A8A421ED1616A47F65E
:100A2400C0721A408A421AD103F44032A16A8A423F
:100A340017D103F07063E26A934214D1002006E0F8
:100A440001207047012002E0012000E0002002B0F4
:100A540070BD0120FBE70120F9E70120F7E7012041
:100A6400F5E70120F3E70120F1E700BF0038024079
:100A740060004742F8B52F4B9B6803F00C03042B2E
:100A840053D0082B53D12B4B5A6802F03F025B68BA
:100A940013F4800F28D0274B5B68C3F388135801E5
:100AA4000021C01A61F100018E0146EA90668701B7
:100AB4003C1A66EB0105E90041EA5471E000C018F4
:100AC40041F100014B0243EAD05344022046194647
:100AD4000023FFF75DFB174B5B68C3F3014301334E
:100AE4005B00B0FBF3F023E0124B5B68C3F38813A5
:100AF4005C010025E41A65F10005AE0146EA94663E
:100B0400A701381B66EB0501CC0044EA5074C5000C
:100B1400E81844F100018B0243EA90538402204612
:100B240019460023FFF734FBD5E7034800E00348E8
:100B3400F8BD00BF0038024000127A000024F4001F
:100B4400002800F09B8070B50D4604464F4B1B688F
:100B540003F00F038B4208D2CBB24C4A13701368D4
:100B640003F00F038B4240F08B80236813F0020FD5
:100B740017D013F0040F04D0454A936843F4E053AC
:100B84009360236813F0080F04D0414A936843F438
:100B9400604393603E4A936823F0F003A1680B43DB
:100BA4009360236813F0010F32D06368012B21D0C6
:100BB4009A1E012A25D9364A126812F0020F61D012
:100BC40033498A6822F0030213438B6000F010FA61
:100BD40006462F4B9B6803F00C036268B3EB820F4D
:100BE40016D000F005FA801B41F288339842F0D900
:100BF400032042E0264A126812F4003FE0D10120AB
:100C04003BE0234A126812F0007FD9D1012034E07E
:100C14001E4B1B6803F00F03AB4207D9EAB21B4B10
:100C24001A701B6803F00F03AB422DD1236813F035
:100C3400040F06D0164A936823F4E053E1680B438B
:100C44009360236813F0080F07D0114A936823F4C4
:100C54006043216943EAC1039360FFF70BFF0C4B28
:100C64009B68C3F303130B4AD35CD8400A4B186048
:100C74000A4B186800F070F9002070BD012070471D
:100C84000120FAE70120F8E70120F6E7003C0240E2
:100C9400003802408C1300080800002004000020E3
:100CA400014B1868704700BF0800002008B5FFF723
:100CB400F7FF044B9B68C3F38223034AD35CD840F9
:100CC40008BD00BF003802409C13000808B5FFF7B8
:100CD400E7FF044B9B68C3F34233034AD35CD84019
:100CE40008BD00BF003802409C13000800230F2BEE
:100CF40000F2C780F0B583B039E0042200E000229E
:100D0400B2403A4302345F4E46F824205E4A1468E7
:100D1400EA4324EA05064F6817F4803F01D045EA08
:100D24000406594C2660646802EA04064F6817F406
:100D3400003F01D045EA0406534C6660A46802EA09
:100D440004064F6817F4801F01D045EA04064E4C90
:100D5400A660E46822404E6816F4001F01D045EAFC
:100D64000402494CE26001330F2B00F28880012217
:100D74009A400C6804EA020532EA0404F3D14C6890
:100D8400661E012E03D9112C01D0122C12D18668B3
:100D94005F000324BC4026EA0406CC68BC4034430C
:100DA4008460466826EA02064C68C4F300129A403E
:100DB40032434260C7685E000324B440E24327EA3A
:100DC40004078C68B4403C43C4604C68022C01D0D6
:100DD400122C13D1DF08083750F827E003F007047A
:100DE4004FEA840C0F2404FA0CF42EEA040E0C6966
:100DF40004FA0CF444EA0E0440F827400468144052
:100E04004A6802F00302B240224302604A6812F0C8
:100E1400805FA8D0002201921C4A546C44F48044A0
:100E24005464526C02F480420192019A9C08A61CFC
:100E3400144A52F8267003F0030296000F22B240BF
:100E440027EA0207124A90423FF459AF02F5806242
:100E540090420ED002F5806290420CD002F580627E
:100E640090420AD002F5806290423FF446AF0722D6
:100E740046E7012244E7022242E7032240E703B0A7
:100E8400F0BD704700380140003C0140003802408A
:100E9400000002400AB18161704709048161704712
:100EA400074AD36823F4E0631B041B0C000200F41C
:100EB400E060034343F0BF6343F40033D3607047FF
:100EC40000ED00E030B4174BDB68C3F30223C3F139
:100ED4000704042C28BF04241D1D062D18D9033B28
:100EE4004FF0FF3505FA04F421EA0401994005FAAC
:100EF40003F322EA0303194300280BDB0901C9B2F7
:100F040000F1604000F5614080F8001330BC704788
:100F14000023E5E700F00F000901C9B2024B1954A0
:100F2400F4E700BF00ED00E014ED00E00138B0F19B
:100F3400807F0AD2064B5860064AF02182F82310BB
:100F44000020986007221A6070470120704700BF94
:100F540010E000E000ED00E010B504460E4B1878F8
:100F64004FF47A73B3FBF0F30C4A1068B0FBF3F060
:100F7400FFF7DCFF68B90F2C01D901200AE0002239
:100F840021464FF0FF30FFF79DFF054B1C6000200A
:100F940000E0012010BD00BF000000200800002078
:100FA4000400002008B50B4B1A6842F400721A6062
:100FB4001A6842F480621A601A6842F480721A60F5
:100FC4000320FFF76DFF0020FFF7C6FFFFF7E6F9E8
:100FD400002008BD003C0240034A1168034B1B7803
:100FE4000B441360704700BF68000020000000201D
:100FF400014B1868704700BF68000020054BD3F808
:10100400882042F47002C3F888204FF000629A608E
:10101400704700BF00ED00E0DFF834D0002103E0AA
:101024000C4B5B58435004310B480C4B42189A420A
:10103400F6D30B4A02E0002342F8043B094B9A42E0
:10104400F9D3FFF7DBFF00F011F8FFF791F97047D0
:1010540000800120B4130008000000200C000020D0
:101064000C0000206C000020FEE7000070B50D4D60
:101074000D4C641BA4100026A64209D10B4D0C4C48
:1010840000F076F9641BA4100026A64205D170BDB9
:1010940055F8043B98470136EEE755F8043B98476A
:1010A4000136F2E7AC130008AC130008AC130008D7
:1010B400B013000802440346934200D1704703F87A
:1010C400011BF9E72DE9F04F099E8A468E46154625
:1010D40004461946002B40F0CA805245B2FA82F702
:1010E40047D94FB1C7F120080AFA07F320FA08F8E4
:1010F400BD4048EA030EBC404FEA15491FFA85F883
:10110400BEFBF9FB220C09FB1BE30BFB08FC42EAC8
:10111400034AD44529D915EB0A0A0BF1FF3004D24E
:10112400D44502D9ABF10200AA44AAEB0C0AA4B23A
:10113400BAFBF9F309FB13AA03FB08F844EA0A44CF
:10114400A04514D92C1903F1FF3203D2A04501D9CB
:101154009A1E2C44A4EB080442EA00401EB1FC4051
:10116400002334607360BDE8F08F5846DDE71A460B
:10117400F0E702B9FFDE9FBBAAEB020301214FEAAD
:10118400154CAAB2B3FBFCFE200C0CFB1E330EFB69
:1011940002F840EA0343984565D9EB180EF1FF3095
:1011A40004D2984502D9AEF102002B44A3EB080304
:1011B400A4B2B3FBFCFE0CFB1E330EFB02F244EAAA
:1011C4000344A24251D92C190EF1FF3304D2A24296
:1011D40002D9AEF102032C44A41A43EA0040BDE74D
:1011E400C7F120082AFA08F9BD4020FA08F80AFADB
:1011F40007F348EA03024FEA154CABB2B9FBFCFE15
:10120400110C0CFB1E900EFB03F841EA00408045D4
:1012140004FA07F423D928180EF1FF3104D28045CB
:1012240002D9AEF102012844A0EB080092B2B0FB4F
:10123400FCFE0CFB1E000EFB03F842EA004398453B
:101244000FD9EB180EF1FF3204D2984502D9AEF152
:1012540002022B44A3EB080342EA01418FE77146E3
:10126400E2E77246F6E77046A0E77346B4E75345F3
:1012740005D90EB1C6E9000A0021084673E7B3FA9E
:1012840083F8B8F1000F10D1534501D382420AD834
:10129400841A6AEB030301209E46002E65D0C6E93A
:1012A400004E00215FE74046F7E7C8F1200903FA42
:1012B40008F322FA09F71F4320FA09F40AFA08F39B
:1012C4002AFA09F51C434FEA174A02FA08FC00FA05
:1012D40008FEB5FBFAF2BBB20AFB1250250C02FB66
:1012E40003F145EA0045A9423BD97D1902F1FF30DB
:1012F40003D2A94201D9901E3D446D1AA4B2B5FB94
:10130400FAF20AFB1255534344EA05418B422AD9A7
:10131400791802F1FF3403D28B4201D9941E394467
:1013240044EA0040A0FB0C45C91AA94223462A46B8
:1013340002D306D1A64504D2B4EB0C0365EB070235
:10134400013896B1BEEB030461EB020E0EFA09F903
:1013540024FA08F349EA03032EFA08F1C6E9003136
:101364009FE71046C9E71446DAE73146FBE600007A
:10137400F8B500BFF8BC08BC9E467047F8B500BF7E
:08138400F8BC08BC9E4670474E
:10138C000000000000000000010203040607080929
:08139C0000000000010203043F
:0813A40024FDFF7F01000000A1
:0413AC00ED01000847
:0413B000C901000867
:0C13B40001000000100000000024F40004
:040000050800101DC2
:00000001FF
